{
  "_format": "hh-sol-artifact-1",
  "contractName": "Multicall2",
  "sourceName": "src/solc0.8/Multicall2.sol",
  "abi": [
    {
      "inputs": [
        {
          "components": [
            {
              "internalType": "address",
              "name": "target",
              "type": "address"
            },
            {
              "internalType": "bytes",
              "name": "callData",
              "type": "bytes"
            }
          ],
          "internalType": "struct Multicall2.Call[]",
          "name": "_calls",
          "type": "tuple[]"
        }
      ],
      "name": "aggregate",
      "outputs": [
        {
          "internalType": "uint256",
          "name": "blockNumber",
          "type": "uint256"
        },
        {
          "internalType": "bytes[]",
          "name": "returnData",
          "type": "bytes[]"
        }
      ],
      "stateMutability": "nonpayable",
      "type": "function"
    },
    {
      "inputs": [
        {
          "components": [
            {
              "internalType": "address",
              "name": "target",
              "type": "address"
            },
            {
              "internalType": "bytes",
              "name": "callData",
              "type": "bytes"
            }
          ],
          "internalType": "struct Multicall2.Call[]",
          "name": "_calls",
          "type": "tuple[]"
        }
      ],
      "name": "blockAndAggregate",
      "outputs": [
        {
          "internalType": "uint256",
          "name": "blockNumber",
          "type": "uint256"
        },
        {
          "internalType": "bytes32",
          "name": "blockHash",
          "type": "bytes32"
        },
        {
          "components": [
            {
              "internalType": "bool",
              "name": "success",
              "type": "bool"
            },
            {
              "internalType": "bytes",
              "name": "returnData",
              "type": "bytes"
            }
          ],
          "internalType": "struct Multicall2.Result[]",
          "name": "returnData",
          "type": "tuple[]"
        }
      ],
      "stateMutability": "nonpayable",
      "type": "function"
    },
    {
      "inputs": [
        {
          "internalType": "uint256",
          "name": "blockNumber",
          "type": "uint256"
        }
      ],
      "name": "getBlockHash",
      "outputs": [
        {
          "internalType": "bytes32",
          "name": "blockHash",
          "type": "bytes32"
        }
      ],
      "stateMutability": "view",
      "type": "function"
    },
    {
      "inputs": [],
      "name": "getBlockNumber",
      "outputs": [
        {
          "internalType": "uint256",
          "name": "blockNumber",
          "type": "uint256"
        }
      ],
      "stateMutability": "view",
      "type": "function"
    },
    {
      "inputs": [],
      "name": "getCurrentBlockCoinbase",
      "outputs": [
        {
          "internalType": "address",
          "name": "coinbase",
          "type": "address"
        }
      ],
      "stateMutability": "view",
      "type": "function"
    },
    {
      "inputs": [],
      "name": "getCurrentBlockDifficulty",
      "outputs": [
        {
          "internalType": "uint256",
          "name": "difficulty",
          "type": "uint256"
        }
      ],
      "stateMutability": "view",
      "type": "function"
    },
    {
      "inputs": [],
      "name": "getCurrentBlockGasLimit",
      "outputs": [
        {
          "internalType": "uint256",
          "name": "gaslimit",
          "type": "uint256"
        }
      ],
      "stateMutability": "view",
      "type": "function"
    },
    {
      "inputs": [],
      "name": "getCurrentBlockTimestamp",
      "outputs": [
        {
          "internalType": "uint256",
          "name": "timestamp",
          "type": "uint256"
        }
      ],
      "stateMutability": "view",
      "type": "function"
    },
    {
      "inputs": [
        {
          "internalType": "address",
          "name": "addr",
          "type": "address"
        }
      ],
      "name": "getEthBalance",
      "outputs": [
        {
          "internalType": "uint256",
          "name": "balance",
          "type": "uint256"
        }
      ],
      "stateMutability": "view",
      "type": "function"
    },
    {
      "inputs": [],
      "name": "getLastBlockHash",
      "outputs": [
        {
          "internalType": "bytes32",
          "name": "blockHash",
          "type": "bytes32"
        }
      ],
      "stateMutability": "view",
      "type": "function"
    },
    {
      "inputs": [
        {
          "internalType": "bool",
          "name": "requireSuccess",
          "type": "bool"
        },
        {
          "components": [
            {
              "internalType": "address",
              "name": "target",
              "type": "address"
            },
            {
              "internalType": "bytes",
              "name": "callData",
              "type": "bytes"
            }
          ],
          "internalType": "struct Multicall2.Call[]",
          "name": "_calls",
          "type": "tuple[]"
        }
      ],
      "name": "tryAggregate",
      "outputs": [
        {
          "components": [
            {
              "internalType": "bool",
              "name": "success",
              "type": "bool"
            },
            {
              "internalType": "bytes",
              "name": "returnData",
              "type": "bytes"
            }
          ],
          "internalType": "struct Multicall2.Result[]",
          "name": "returnData",
          "type": "tuple[]"
        }
      ],
      "stateMutability": "nonpayable",
      "type": "function"
    },
    {
      "inputs": [
        {
          "internalType": "bool",
          "name": "requireSuccess",
          "type": "bool"
        },
        {
          "components": [
            {
              "internalType": "address",
              "name": "target",
              "type": "address"
            },
            {
              "internalType": "bytes",
              "name": "callData",
              "type": "bytes"
            }
          ],
          "internalType": "struct Multicall2.Call[]",
          "name": "_calls",
          "type": "tuple[]"
        }
      ],
      "name": "tryBlockAndAggregate",
      "outputs": [
        {
          "internalType": "uint256",
          "name": "blockNumber",
          "type": "uint256"
        },
        {
          "internalType": "bytes32",
          "name": "blockHash",
          "type": "bytes32"
        },
        {
          "components": [
            {
              "internalType": "bool",
              "name": "success",
              "type": "bool"
            },
            {
              "internalType": "bytes",
              "name": "returnData",
              "type": "bytes"
            }
          ],
          "internalType": "struct Multicall2.Result[]",
          "name": "returnData",
          "type": "tuple[]"
        }
      ],
      "stateMutability": "nonpayable",
      "type": "function"
    }
  ],
  "bytecode": "0x60c060405260116080819052701393d397d0d3d395149050d517d0d05313607a1b60a09081526100329160009190610045565b5034801561003f57600080fd5b50610119565b828054610051906100de565b90600052602060002090601f01602090048101928261007357600085556100b9565b82601f1061008c57805160ff19168380011785556100b9565b828001600101855582156100b9579182015b828111156100b957825182559160200191906001019061009e565b506100c59291506100c9565b5090565b5b808211156100c557600081556001016100ca565b600181811c908216806100f257607f821691505b6020821081141561011357634e487b7160e01b600052602260045260246000fd5b50919050565b610a84806101286000396000f3fe608060405234801561001057600080fd5b50600436106100b45760003560e01c806372425d9d1161007157806372425d9d1461013a57806386d516e814610140578063a8b0574e14610146578063bce38bd714610154578063c3077fa914610174578063ee82ac5e1461018757600080fd5b80630f28c97d146100b9578063252dba42146100ce57806327e86d6e146100ef578063399542e9146100f757806342cbb15c146101195780634d2301cc1461011f575b600080fd5b425b6040519081526020015b60405180910390f35b6100e16100dc36600461074f565b610199565b6040516100c59291906108d6565b6100bb610380565b61010a61010536600461078f565b610393565b6040516100c59392919061093f565b436100bb565b6100bb61012d366004610721565b6001600160a01b03163190565b446100bb565b456100bb565b6040514181526020016100c5565b61016761016236600461078f565b6103ae565b6040516100c591906108c3565b61010a61018236600461074f565b6106b8565b6100bb6101953660046107e6565b4090565b4360608267ffffffffffffffff8111156101c357634e487b7160e01b600052604160045260246000fd5b6040519080825280602002602001820160405280156101f657816020015b60608152602001906001900390816101e15790505b50905060005b838110156103785760008086868481811061022757634e487b7160e01b600052603260045260246000fd5b905060200281019061023991906109ac565b610247906020810190610721565b6001600160a01b031687878581811061027057634e487b7160e01b600052603260045260246000fd5b905060200281019061028291906109ac565b610290906020810190610967565b60405161029e9291906108b3565b6000604051808303816000865af19150503d80600081146102db576040519150601f19603f3d011682016040523d82523d6000602084013e6102e0565b606091505b5091509150816103375760405162461bcd60e51b815260206004820181905260248201527f4d756c746963616c6c206167677265676174653a2063616c6c206661696c656460448201526064015b60405180910390fd5b8084848151811061035857634e487b7160e01b600052603260045260246000fd5b60200260200101819052505050808061037090610a1d565b9150506101fc565b509250929050565b600061038d6001436109cb565b40905090565b43804060606103a38686866103ae565b905093509350939050565b60608167ffffffffffffffff8111156103d757634e487b7160e01b600052604160045260246000fd5b60405190808252806020026020018201604052801561041d57816020015b6040805180820190915260008152606060208201528152602001906001900390816103f55790505b5090506000606060005b848110156106ae5761048186868381811061045257634e487b7160e01b600052603260045260246000fd5b905060200281019061046491906109ac565b610472906020810190610721565b6001600160a01b03163b151590565b156105c7578585828181106104a657634e487b7160e01b600052603260045260246000fd5b90506020028101906104b891906109ac565b6104c6906020810190610721565b6001600160a01b03168686838181106104ef57634e487b7160e01b600052603260045260246000fd5b905060200281019061050191906109ac565b61050f906020810190610967565b60405161051d9291906108b3565b6000604051808303816000865af19150503d806000811461055a576040519150601f19603f3d011682016040523d82523d6000602084013e61055f565b606091505b50909350915086156105c257826105c25760405162461bcd60e51b815260206004820152602160248201527f4d756c746963616c6c32206167677265676174653a2063616c6c206661696c656044820152601960fa1b606482015260840161032e565b610659565b60009250600080546105d8906109e2565b80601f0160208091040260200160405190810160405280929190818152602001828054610604906109e2565b80156106515780601f1061062657610100808354040283529160200191610651565b820191906000526020600020905b81548152906001019060200180831161063457829003601f168201915b505050505091505b604051806040016040528084151581526020018381525084828151811061069057634e487b7160e01b600052603260045260246000fd5b602002602001018190525080806106a690610a1d565b915050610427565b5050509392505050565b60008060606106c960018686610393565b919790965090945092505050565b60008083601f8401126106e8578182fd5b50813567ffffffffffffffff8111156106ff578182fd5b6020830191508360208260051b850101111561071a57600080fd5b9250929050565b600060208284031215610732578081fd5b81356001600160a01b0381168114610748578182fd5b9392505050565b60008060208385031215610761578081fd5b823567ffffffffffffffff811115610777578182fd5b610783858286016106d7565b90969095509350505050565b6000806000604084860312156107a3578081fd5b833580151581146107b2578182fd5b9250602084013567ffffffffffffffff8111156107cd578182fd5b6107d9868287016106d7565b9497909650939450505050565b6000602082840312156107f7578081fd5b5035919050565b600081518084526020808501808196508360051b81019150828601855b8581101561085b5782840389528151805115158552850151604086860181905261084781870183610868565b9a87019a955050509084019060010161081b565b5091979650505050505050565b60008151808452815b8181101561088d57602081850181015186830182015201610871565b8181111561089e5782602083870101525b50601f01601f19169290920160200192915050565b8183823760009101908152919050565b60208152600061074860208301846107fe565b600060408201848352602060408185015281855180845260608601915060608160051b8701019350828701855b8281101561093157605f1988870301845261091f868351610868565b95509284019290840190600101610903565b509398975050505050505050565b83815282602082015260606040820152600061095e60608301846107fe565b95945050505050565b6000808335601e1984360301811261097d578283fd5b83018035915067ffffffffffffffff821115610997578283fd5b60200191503681900382131561071a57600080fd5b60008235603e198336030181126109c1578182fd5b9190910192915050565b6000828210156109dd576109dd610a38565b500390565b600181811c908216806109f657607f821691505b60208210811415610a1757634e487b7160e01b600052602260045260246000fd5b50919050565b6000600019821415610a3157610a31610a38565b5060010190565b634e487b7160e01b600052601160045260246000fdfea26469706673582212203236d48fb10dd444d960096cab0056d029467a7b83b1d1e287e9e140541fa5f364736f6c63430008040033",
  "linkReferences": {},
  "deployedLinkReferences": {}
}