{
  "_format": "hh-sol-artifact-1",
  "contractName": "UniV2LikeArb",
  "sourceName": "contracts/UniV2LikeArb.sol",
  "abi": [
    {
      "inputs": [
        {
          "internalType": "address",
          "name": "_admin",
          "type": "address"
        }
      ],
      "stateMutability": "nonpayable",
      "type": "constructor"
    },
    {
      "anonymous": false,
      "inputs": [
        {
          "indexed": true,
          "internalType": "bytes32",
          "name": "role",
          "type": "bytes32"
        },
        {
          "indexed": true,
          "internalType": "bytes32",
          "name": "previousAdminRole",
          "type": "bytes32"
        },
        {
          "indexed": true,
          "internalType": "bytes32",
          "name": "newAdminRole",
          "type": "bytes32"
        }
      ],
      "name": "RoleAdminChanged",
      "type": "event"
    },
    {
      "anonymous": false,
      "inputs": [
        {
          "indexed": true,
          "internalType": "bytes32",
          "name": "role",
          "type": "bytes32"
        },
        {
          "indexed": true,
          "internalType": "address",
          "name": "account",
          "type": "address"
        },
        {
          "indexed": true,
          "internalType": "address",
          "name": "sender",
          "type": "address"
        }
      ],
      "name": "RoleGranted",
      "type": "event"
    },
    {
      "anonymous": false,
      "inputs": [
        {
          "indexed": true,
          "internalType": "bytes32",
          "name": "role",
          "type": "bytes32"
        },
        {
          "indexed": true,
          "internalType": "address",
          "name": "account",
          "type": "address"
        },
        {
          "indexed": true,
          "internalType": "address",
          "name": "sender",
          "type": "address"
        }
      ],
      "name": "RoleRevoked",
      "type": "event"
    },
    {
      "inputs": [],
      "name": "DEFAULT_ADMIN_ROLE",
      "outputs": [
        {
          "internalType": "bytes32",
          "name": "",
          "type": "bytes32"
        }
      ],
      "stateMutability": "view",
      "type": "function"
    },
    {
      "inputs": [],
      "name": "OPERATOR_ROLE",
      "outputs": [
        {
          "internalType": "bytes32",
          "name": "",
          "type": "bytes32"
        }
      ],
      "stateMutability": "view",
      "type": "function"
    },
    {
      "inputs": [
        {
          "internalType": "uint256",
          "name": "truePriceTokenA",
          "type": "uint256"
        },
        {
          "internalType": "uint256",
          "name": "truePriceTokenB",
          "type": "uint256"
        },
        {
          "internalType": "uint256",
          "name": "reserveA",
          "type": "uint256"
        },
        {
          "internalType": "uint256",
          "name": "reserveB",
          "type": "uint256"
        },
        {
          "internalType": "uint256",
          "name": "precision",
          "type": "uint256"
        },
        {
          "internalType": "uint256",
          "name": "backwardPercent",
          "type": "uint256"
        }
      ],
      "name": "computeProfitMaximizingTrade",
      "outputs": [
        {
          "internalType": "bool",
          "name": "aToB",
          "type": "bool"
        },
        {
          "internalType": "uint256",
          "name": "amountIn",
          "type": "uint256"
        }
      ],
      "stateMutability": "pure",
      "type": "function"
    },
    {
      "inputs": [
        {
          "internalType": "uint256",
          "name": "truePriceTokenA",
          "type": "uint256"
        },
        {
          "internalType": "uint256",
          "name": "truePriceTokenB",
          "type": "uint256"
        },
        {
          "internalType": "uint256",
          "name": "reserveA",
          "type": "uint256"
        },
        {
          "internalType": "uint256",
          "name": "reserveB",
          "type": "uint256"
        }
      ],
      "name": "computeProfitMaximizingTrade",
      "outputs": [
        {
          "internalType": "bool",
          "name": "aToB",
          "type": "bool"
        },
        {
          "internalType": "uint256",
          "name": "amountIn",
          "type": "uint256"
        }
      ],
      "stateMutability": "pure",
      "type": "function"
    },
    {
      "inputs": [],
      "name": "destroy",
      "outputs": [],
      "stateMutability": "nonpayable",
      "type": "function"
    },
    {
      "inputs": [
        {
          "internalType": "contract IUniswapV2Router01",
          "name": "_routerA",
          "type": "address"
        },
        {
          "internalType": "contract IUniswapV2Router01",
          "name": "_routerB",
          "type": "address"
        },
        {
          "internalType": "address",
          "name": "_profitToken",
          "type": "address"
        },
        {
          "internalType": "address",
          "name": "_middleToken",
          "type": "address"
        },
        {
          "internalType": "uint256",
          "name": "_amountIn",
          "type": "uint256"
        }
      ],
      "name": "getExpectedAmount",
      "outputs": [
        {
          "internalType": "uint256",
          "name": "amountOut",
          "type": "uint256"
        }
      ],
      "stateMutability": "view",
      "type": "function"
    },
    {
      "inputs": [
        {
          "internalType": "contract IUniswapV2Router01",
          "name": "router",
          "type": "address"
        },
        {
          "internalType": "address",
          "name": "tokenA",
          "type": "address"
        },
        {
          "internalType": "address",
          "name": "tokenB",
          "type": "address"
        },
        {
          "internalType": "uint256",
          "name": "truePriceTokenA",
          "type": "uint256"
        },
        {
          "internalType": "uint256",
          "name": "truePriceTokenB",
          "type": "uint256"
        },
        {
          "internalType": "uint256",
          "name": "maxSpendTokenA",
          "type": "uint256"
        },
        {
          "internalType": "uint256",
          "name": "maxSpendTokenB",
          "type": "uint256"
        }
      ],
      "name": "getMaximizedProfit",
      "outputs": [
        {
          "internalType": "uint256[]",
          "name": "amounts",
          "type": "uint256[]"
        },
        {
          "internalType": "address[]",
          "name": "path",
          "type": "address[]"
        },
        {
          "internalType": "uint256",
          "name": "amountIn",
          "type": "uint256"
        },
        {
          "internalType": "uint256",
          "name": "amountInHypothetical",
          "type": "uint256"
        },
        {
          "internalType": "uint256",
          "name": "profit",
          "type": "uint256"
        }
      ],
      "stateMutability": "view",
      "type": "function"
    },
    {
      "inputs": [
        {
          "internalType": "bytes32",
          "name": "role",
          "type": "bytes32"
        }
      ],
      "name": "getRoleAdmin",
      "outputs": [
        {
          "internalType": "bytes32",
          "name": "",
          "type": "bytes32"
        }
      ],
      "stateMutability": "view",
      "type": "function"
    },
    {
      "inputs": [
        {
          "internalType": "string",
          "name": "_role",
          "type": "string"
        }
      ],
      "name": "getRoleHash",
      "outputs": [
        {
          "internalType": "bytes32",
          "name": "hash",
          "type": "bytes32"
        }
      ],
      "stateMutability": "pure",
      "type": "function"
    },
    {
      "inputs": [
        {
          "internalType": "bytes32",
          "name": "role",
          "type": "bytes32"
        },
        {
          "internalType": "uint256",
          "name": "index",
          "type": "uint256"
        }
      ],
      "name": "getRoleMember",
      "outputs": [
        {
          "internalType": "address",
          "name": "",
          "type": "address"
        }
      ],
      "stateMutability": "view",
      "type": "function"
    },
    {
      "inputs": [
        {
          "internalType": "bytes32",
          "name": "role",
          "type": "bytes32"
        }
      ],
      "name": "getRoleMemberCount",
      "outputs": [
        {
          "internalType": "uint256",
          "name": "",
          "type": "uint256"
        }
      ],
      "stateMutability": "view",
      "type": "function"
    },
    {
      "inputs": [
        {
          "internalType": "bytes32",
          "name": "role",
          "type": "bytes32"
        },
        {
          "internalType": "address",
          "name": "account",
          "type": "address"
        }
      ],
      "name": "grantRole",
      "outputs": [],
      "stateMutability": "nonpayable",
      "type": "function"
    },
    {
      "inputs": [
        {
          "internalType": "bytes32",
          "name": "role",
          "type": "bytes32"
        },
        {
          "internalType": "address",
          "name": "account",
          "type": "address"
        }
      ],
      "name": "hasRole",
      "outputs": [
        {
          "internalType": "bool",
          "name": "",
          "type": "bool"
        }
      ],
      "stateMutability": "view",
      "type": "function"
    },
    {
      "inputs": [
        {
          "internalType": "bytes[]",
          "name": "data",
          "type": "bytes[]"
        }
      ],
      "name": "multicall",
      "outputs": [
        {
          "internalType": "bytes[]",
          "name": "results",
          "type": "bytes[]"
        }
      ],
      "stateMutability": "payable",
      "type": "function"
    },
    {
      "inputs": [
        {
          "internalType": "bytes32",
          "name": "role",
          "type": "bytes32"
        },
        {
          "internalType": "address",
          "name": "account",
          "type": "address"
        }
      ],
      "name": "renounceRole",
      "outputs": [],
      "stateMutability": "nonpayable",
      "type": "function"
    },
    {
      "inputs": [
        {
          "internalType": "bytes32",
          "name": "role",
          "type": "bytes32"
        },
        {
          "internalType": "address",
          "name": "account",
          "type": "address"
        }
      ],
      "name": "revokeRole",
      "outputs": [],
      "stateMutability": "nonpayable",
      "type": "function"
    },
    {
      "inputs": [
        {
          "internalType": "contract IUniswapV2Router01",
          "name": "_routerA",
          "type": "address"
        },
        {
          "internalType": "contract IUniswapV2Router01",
          "name": "_routerB",
          "type": "address"
        },
        {
          "internalType": "address",
          "name": "_profitToken",
          "type": "address"
        },
        {
          "internalType": "address",
          "name": "_middleToken",
          "type": "address"
        },
        {
          "internalType": "uint256",
          "name": "_amountIn",
          "type": "uint256"
        }
      ],
      "name": "swap",
      "outputs": [
        {
          "internalType": "uint256",
          "name": "amountOut",
          "type": "uint256"
        }
      ],
      "stateMutability": "nonpayable",
      "type": "function"
    },
    {
      "inputs": [
        {
          "internalType": "contract IUniswapV2Router01",
          "name": "router",
          "type": "address"
        },
        {
          "internalType": "address",
          "name": "tokenA",
          "type": "address"
        },
        {
          "internalType": "address",
          "name": "tokenB",
          "type": "address"
        },
        {
          "internalType": "uint256",
          "name": "truePriceTokenA",
          "type": "uint256"
        },
        {
          "internalType": "uint256",
          "name": "truePriceTokenB",
          "type": "uint256"
        },
        {
          "internalType": "uint256",
          "name": "maxSpendTokenA",
          "type": "uint256"
        },
        {
          "internalType": "uint256",
          "name": "maxSpendTokenB",
          "type": "uint256"
        }
      ],
      "name": "swapToPrice",
      "outputs": [
        {
          "internalType": "uint256[]",
          "name": "amounts",
          "type": "uint256[]"
        },
        {
          "internalType": "address[]",
          "name": "path",
          "type": "address[]"
        }
      ],
      "stateMutability": "nonpayable",
      "type": "function"
    }
  ],
  "bytecode": "0x60806040526200001060a0620001ff565b604051602081830303815290604052805190602001206001553480156200003657600080fd5b5060405162002dda38038062002dda8339810160408190526200005991620001cf565b806001600160a01b038116620000a6576040805162461bcd60e51b815260206004820152600d60248201526c10591b5a5b881b9bdd081cd95d609a1b604482015290519081900360640190fd5b620000b3600082620000bb565b505062000218565b620000c78282620000cb565b5050565b600082815260208181526040909120620000f091839062001acd62000144821b17901c565b15620000c7576200010062000164565b6001600160a01b0316816001600160a01b0316837f2f8788117e7eff1d82e926ec794901d17c78024a50270940304540a733656f0d60405160405180910390a45050565b60006200015b836001600160a01b03841662000168565b90505b92915050565b3390565b6000620001768383620001b7565b620001ae575081546001818101845560008481526020808220909301849055845484825282860190935260409020919091556200015e565b5060006200015e565b60009081526001919091016020526040902054151590565b600060208284031215620001e1578081fd5b81516001600160a01b0381168114620001f8578182fd5b9392505050565b6c4f50455241544f525f524f4c4560981b8152600d0190565b612bb280620002286000396000f3fe6080604052600436106101285760003560e01c8063a217fddf116100a5578063ca15c87311610074578063f275f1af11610059578063f275f1af14610356578063f5b541a614610376578063fa6531541461038b57610128565b8063ca15c87314610316578063d547741f1461033657610128565b8063a217fddf14610282578063ac55f70614610297578063ac9650d8146102c5578063ad3d3ede146102e557610128565b80636194ae39116100fc5780638da4e9c0116100e15780638da4e9c0146102085780639010d07c1461022857806391d148541461025557610128565b80636194ae39146101d357806383197ef0146101f357610128565b806252e8431461012d578063248a9ca3146101645780632f2ff15d1461019157806336568abe146101b3575b600080fd5b34801561013957600080fd5b5061014d6101483660046125b3565b6103ab565b60405161015b9291906127ff565b60405180910390f35b34801561017057600080fd5b5061018461017f3660046122f8565b6104bf565b60405161015b919061280f565b34801561019d57600080fd5b506101b16101ac366004612310565b6104d7565b005b3480156101bf57600080fd5b506101b16101ce366004612310565b61053e565b3480156101df57600080fd5b506101846101ee3660046123cd565b61059f565b3480156101ff57600080fd5b506101b1610cc5565b34801561021457600080fd5b506101846102233660046123cd565b610d2d565b34801561023457600080fd5b5061024861024336600461233f565b610f51565b60405161015b91906126a3565b34801561026157600080fd5b50610275610270366004612310565b610f72565b60405161015b91906127f4565b34801561028e57600080fd5b50610184610f8a565b3480156102a357600080fd5b506102b76102b2366004612360565b610f8f565b60405161015b92919061278c565b6102d86102d33660046121c8565b61144d565b60405161015b919061270e565b3480156102f157600080fd5b50610305610300366004612360565b61158d565b60405161015b9594939291906127b1565b34801561032257600080fd5b506101846103313660046122f8565b611924565b34801561034257600080fd5b506101b1610351366004612310565b61193b565b34801561036257600080fd5b50610184610371366004612430565b611994565b34801561038257600080fd5b50610184611a0b565b34801561039757600080fd5b5061014d6103a6366004612582565b611a11565b60008083831115610403576040805162461bcd60e51b815260206004820152601760248201527f496e636f727265637420707265636973696f6e20736574000000000000000000604482015290519081900360640190fd5b8761040f878988611ae2565b109150600061041e8787611b9d565b9050600061046061045b6104328489611b9d565b8661043d578b61043f565b8c5b610456898961044e578f610450565b8e5b90611b9d565b611ae2565b611c09565b905060008585610479576104748989611b9d565b610483565b6104838a89611b9d565b8161048a57fe5b049050808210156104a457600080945094505050506104b4565b6104ae8282611c5a565b93505050505b965096945050505050565b6000818152602081905260409020600201545b919050565b6000828152602081905260409020600201546104f590610270611cb2565b6105305760405162461bcd60e51b815260040180806020018281038252602f815260200180612aef602f913960400191505060405180910390fd5b61053a8282611cb6565b5050565b610546611cb2565b6001600160a01b0316816001600160a01b0316146105955760405162461bcd60e51b815260040180806020018281038252602f815260200180612b4e602f913960400191505060405180910390fd5b61053a8282611d1f565b600080600080886001600160a01b031663c45a01556040518163ffffffff1660e01b815260040160206040518083038186803b1580156105de57600080fd5b505afa1580156105f2573d6000803e3d6000fd5b505050506040513d601f19601f8201168201806040525081019061061691906121ac565b6001600160a01b031663e6a4390588886040518363ffffffff1660e01b81526004016106439291906126db565b60206040518083038186803b15801561065b57600080fd5b505afa15801561066f573d6000803e3d6000fd5b505050506040513d601f19601f8201168201806040525081019061069391906121ac565b604080516002808252606082018352929350600092909160208301908036833701905050905087816000815181106106c757fe5b60200260200101906001600160a01b031690816001600160a01b03168152505086816001815181106106f557fe5b60200260200101906001600160a01b031690816001600160a01b0316815250506000826001600160a01b0316630dfe16816040518163ffffffff1660e01b815260040160206040518083038186803b15801561075057600080fd5b505afa158015610764573d6000803e3d6000fd5b505050506040513d601f19601f8201168201806040525081019061078891906121ac565b90506000836001600160a01b031663d21220a76040518163ffffffff1660e01b815260040160206040518083038186803b1580156107c557600080fd5b505afa1580156107d9573d6000803e3d6000fd5b505050506040513d601f19601f820116820180604052508101906107fd91906121ac565b90508b6001600160a01b031663c45a01556040518163ffffffff1660e01b815260040160206040518083038186803b15801561083857600080fd5b505afa15801561084c573d6000803e3d6000fd5b505050506040513d601f19601f8201168201806040525081019061087091906121ac565b6001600160a01b031663e6a439058b8b6040518363ffffffff1660e01b815260040161089d9291906126db565b60206040518083038186803b1580156108b557600080fd5b505afa1580156108c9573d6000803e3d6000fd5b505050506040513d601f19601f820116820180604052508101906108ed91906121ac565b6001600160a01b0316630902f1ac6040518163ffffffff1660e01b815260040160606040518083038186803b15801561092557600080fd5b505afa158015610939573d6000803e3d6000fd5b505050506040513d601f19601f8201168201806040525081019061095d919061251c565b506dffffffffffffffffffffffffffff91821697501694506001600160a01b03808d169063054d50d4908a90858116908e161461099a578761099c565b885b8c6001600160a01b0316856001600160a01b0316146109bb57896109bd565b885b6040518463ffffffff1660e01b81526004016109db939291906129c1565b60206040518083038186803b1580156109f357600080fd5b505afa158015610a07573d6000803e3d6000fd5b505050506040513d601f19601f82011682018060405250810190610a2b919061256a565b96508883600081518110610a3b57fe5b60200260200101906001600160a01b031690816001600160a01b0316815250508983600181518110610a6957fe5b60200260200101906001600160a01b031690816001600160a01b0316815250508a6001600160a01b031663c45a01556040518163ffffffff1660e01b815260040160206040518083038186803b158015610ac257600080fd5b505afa158015610ad6573d6000803e3d6000fd5b505050506040513d601f19601f82011682018060405250810190610afa91906121ac565b6001600160a01b031663e6a439058b8b6040518363ffffffff1660e01b8152600401610b279291906126db565b60206040518083038186803b158015610b3f57600080fd5b505afa158015610b53573d6000803e3d6000fd5b505050506040513d601f19601f82011682018060405250810190610b7791906121ac565b6001600160a01b0316630902f1ac6040518163ffffffff1660e01b815260040160606040518083038186803b158015610baf57600080fd5b505afa158015610bc3573d6000803e3d6000fd5b505050506040513d601f19601f82011682018060405250810190610be7919061251c565b506dffffffffffffffffffffffffffff91821697501694506001600160a01b03808c169063054d50d4908990858116908d1614610c245787610c26565b885b8d6001600160a01b0316856001600160a01b031614610c455789610c47565b885b6040518463ffffffff1660e01b8152600401610c65939291906129c1565b60206040518083038186803b158015610c7d57600080fd5b505afa158015610c91573d6000803e3d6000fd5b505050506040513d601f19601f82011682018060405250810190610cb5919061256a565b9c9b505050505050505050505050565b6000610cd18133610f72565b610d22576040805162461bcd60e51b815260206004820152601260248201527f5065726d697373696f6e2064656e696564210000000000000000000000000000604482015290519081900360640190fd5b610d2a611d88565b50565b6000600154610d3c8133610f72565b610d8d576040805162461bcd60e51b815260206004820152601260248201527f5065726d697373696f6e2064656e696564210000000000000000000000000000604482015290519081900360640190fd5b6040517f23b872dd0000000000000000000000000000000000000000000000000000000081526001600160a01b038616906323b872dd90610dd6903390309088906004016126b7565b602060405180830381600087803b158015610df057600080fd5b505af1158015610e04573d6000803e3d6000fd5b505050506040513d601f19601f82011682018060405250810190610e2891906122d8565b506040805160028082526060820183526000926020830190803683370190505090508581600081518110610e5857fe5b60200260200101906001600160a01b031690816001600160a01b0316815250508481600181518110610e8657fe5b60200260200101906001600160a01b031690816001600160a01b031681525050610eb288858330611d8b565b92508481600081518110610ec257fe5b60200260200101906001600160a01b031690816001600160a01b0316815250508581600181518110610ef057fe5b60200260200101906001600160a01b031690816001600160a01b031681525050610f1c87848333611d8b565b9250838311610f465760405162461bcd60e51b8152600401610f3d90612862565b60405180910390fd5b505095945050505050565b6000828152602081905260408120610f699083611ee4565b90505b92915050565b6000828152602081905260408120610f699083611ef0565b600081565b6060808515801590610fa057508415155b610fbc5760405162461bcd60e51b8152600401610f3d906128d0565b83151580610fc957508215155b610fe55760405162461bcd60e51b8152600401610f3d9061282b565b6000806000808c6001600160a01b031663c45a01556040518163ffffffff1660e01b815260040160206040518083038186803b15801561102457600080fd5b505afa158015611038573d6000803e3d6000fd5b505050506040513d601f19601f8201168201806040525081019061105c91906121ac565b6001600160a01b031663e6a439058d8d6040518363ffffffff1660e01b81526004016110899291906126db565b60206040518083038186803b1580156110a157600080fd5b505afa1580156110b5573d6000803e3d6000fd5b505050506040513d601f19601f820116820180604052508101906110d991906121ac565b6001600160a01b0316630902f1ac6040518163ffffffff1660e01b815260040160606040518083038186803b15801561111157600080fd5b505afa158015611125573d6000803e3d6000fd5b505050506040513d601f19601f82011682018060405250810190611149919061251c565b506dffffffffffffffffffffffffffff1691506dffffffffffffffffffffffffffff16915061117a8a8a8484611a11565b909450925050508061119e5760405162461bcd60e51b8152600401610f3d90612907565b6000826111ab57856111ad565b865b9050808211156111bb578091505b6000836111c8578a6111ca565b8b5b604080516002808252606082018352929350919060208301908036833701905050945080856000815181106111fb57fe5b60200260200101906001600160a01b031690816001600160a01b03168152505083611226578b611228565b8a5b8560018151811061123557fe5b6001600160a01b0392831660209182029290920101526040517f23b872dd000000000000000000000000000000000000000000000000000000008152908216906323b872dd9061128d903390309088906004016126b7565b602060405180830381600087803b1580156112a757600080fd5b505af11580156112bb573d6000803e3d6000fd5b505050506040513d601f19601f820116820180604052508101906112df91906122d8565b6112fb5760405162461bcd60e51b8152600401610f3d90612899565b806001600160a01b031663095ea7b38e856040518363ffffffff1660e01b81526004016113299291906126f5565b602060405180830381600087803b15801561134357600080fd5b505af1158015611357573d6000803e3d6000fd5b505050506040513d601f19601f8201168201806040525081019061137b91906122d8565b6113975760405162461bcd60e51b8152600401610f3d90612899565b6040517f38ed17390000000000000000000000000000000000000000000000000000000081526001600160a01b038e16906338ed1739906113e59086906000908a9033904290600401612985565b600060405180830381600087803b1580156113ff57600080fd5b505af1158015611413573d6000803e3d6000fd5b505050506040513d6000823e601f3d908101601f1916820160405261143b9190810190612237565b95505050505097509795505050505050565b60608167ffffffffffffffff8111801561146657600080fd5b5060405190808252806020026020018201604052801561149a57816020015b60608152602001906001900390816114855790505b50905060005b8281101561158657600080308686858181106114b857fe5b90506020028101906114ca91906129d7565b6040516114d8929190612693565b600060405180830381855af49150503d8060008114611513576040519150601f19603f3d011682016040523d82523d6000602084013e611518565b606091505b5091509150816115645760448151101561153157600080fd5b6004810190508080602001905181019061154b91906124a9565b60405162461bcd60e51b8152600401610f3d9190612818565b8084848151811061157157fe5b602090810291909101015250506001016114a0565b5092915050565b6060806000808088158015906115a257508715155b6115be5760405162461bcd60e51b8152600401610f3d906128d0565b861515806115cb57508515155b6115e75760405162461bcd60e51b8152600401610f3d9061282b565b60008060008e6001600160a01b031663c45a01556040518163ffffffff1660e01b815260040160206040518083038186803b15801561162557600080fd5b505afa158015611639573d6000803e3d6000fd5b505050506040513d601f19601f8201168201806040525081019061165d91906121ac565b6001600160a01b031663e6a439058f8f6040518363ffffffff1660e01b815260040161168a9291906126db565b60206040518083038186803b1580156116a257600080fd5b505afa1580156116b6573d6000803e3d6000fd5b505050506040513d601f19601f820116820180604052508101906116da91906121ac565b6001600160a01b0316630902f1ac6040518163ffffffff1660e01b815260040160606040518083038186803b15801561171257600080fd5b505afa158015611726573d6000803e3d6000fd5b505050506040513d601f19601f8201168201806040525081019061174a919061251c565b506dffffffffffffffffffffffffffff1691506dffffffffffffffffffffffffffff16915061177b8c8c8484611a11565b9650925050508361179e5760405162461bcd60e51b8152600401610f3d90612907565b8392506000816117ae57876117b0565b885b9050808511156117be578094505b6000826117cb578c6117cd565b8d5b604080516002808252606082018352929350919060208301908036833701905050965080876000815181106117fe57fe5b60200260200101906001600160a01b031690816001600160a01b03168152505082611829578d61182b565b8c5b8760018151811061183857fe5b60200260200101906001600160a01b031690816001600160a01b0316815250508e6001600160a01b031663d06ca61f87896040518363ffffffff1660e01b8152600401611886929190612964565b60006040518083038186803b15801561189e57600080fd5b505afa1580156118b2573d6000803e3d6000fd5b505050506040513d6000823e601f3d908101601f191682016040526118da9190810190612237565b975085886001815181106118ea57fe5b6020026020010151111561191257858860018151811061190657fe5b60200260200101510393505b50505097509750975097509792505050565b6000818152602081905260408120610f6c90611f05565b60008281526020819052604090206002015461195990610270611cb2565b6105955760405162461bcd60e51b8152600401808060200182810382526030815260200180612b1e6030913960400191505060405180910390fd5b6000816040516020018082805190602001908083835b602083106119c95780518252601f1990920191602091820191016119aa565b6001836020036101000a038019825116818451168082178552505050505050905001915050604051602081830303815290604052805190602001209050919050565b60015481565b60008085611a20858786611ae2565b1091506000611a2f8585611b9d565b90506000611a6a61045b611a45846103e8611b9d565b86611a505789611a52565b8a5b6104566103e589611a63578d610450565b8c90611b9d565b905060006103e585611a8757611a82876103e8611b9d565b611a93565b611a93886103e8611b9d565b81611a9a57fe5b04905080821015611ab45760008094509450505050611ac4565b611abe8282611c5a565b93505050505b94509492505050565b6000610f69836001600160a01b038416611f10565b6000806000611af18686611f5a565b9150915060008480611aff57fe5b868809905082811115611b13576001820391505b918290039181611b3157848381611b2657fe5b049350505050611b96565b848210611b85576040805162461bcd60e51b815260206004820152601a60248201527f46756c6c4d6174683a2046554c4c4449565f4f564552464c4f57000000000000604482015290519081900360640190fd5b611b90838387611fa5565b93505050505b9392505050565b6000811580611bb857505080820282828281611bb557fe5b04145b610f6c576040805162461bcd60e51b815260206004820152601460248201527f64732d6d6174682d6d756c2d6f766572666c6f77000000000000000000000000604482015290519081900360640190fd5b60006003821115611c4c575080600160028204015b81811015611c4657809150600281828581611c3557fe5b040181611c3e57fe5b049050611c1e565b506104d2565b81156104d257506001919050565b80820382811115610f6c576040805162461bcd60e51b815260206004820152601560248201527f64732d6d6174682d7375622d756e646572666c6f770000000000000000000000604482015290519081900360640190fd5b3390565b6000828152602081905260409020611cce9082611acd565b1561053a57611cdb611cb2565b6001600160a01b0316816001600160a01b0316837f2f8788117e7eff1d82e926ec794901d17c78024a50270940304540a733656f0d60405160405180910390a45050565b6000828152602081905260409020611d379082612015565b1561053a57611d44611cb2565b6001600160a01b0316816001600160a01b0316837ff6391f5c32d9c69d2a47ea670b442974b53935d1edc7fd64eb21e047a839171b60405160405180910390a45050565b33ff5b600082600081518110611d9a57fe5b60200260200101516001600160a01b031663095ea7b386866040518363ffffffff1660e01b8152600401611dcf9291906126f5565b602060405180830381600087803b158015611de957600080fd5b505af1158015611dfd573d6000803e3d6000fd5b505050506040513d601f19601f82011682018060405250810190611e2191906122d8565b506040517f38ed17390000000000000000000000000000000000000000000000000000000081526001600160a01b038616906338ed173990611e70908790600090889088904290600401612985565b600060405180830381600087803b158015611e8a57600080fd5b505af1158015611e9e573d6000803e3d6000fd5b505050506040513d6000823e601f3d908101601f19168201604052611ec69190810190612237565b600181518110611ed257fe5b60200260200101519050949350505050565b6000610f69838361202a565b6000610f69836001600160a01b03841661208e565b6000610f6c826120a6565b6000611f1c838361208e565b611f5257508154600181810184556000848152602080822090930184905584548482528286019093526040902091909155610f6c565b506000610f6c565b600080807fffffffffffffffffffffffffffffffffffffffffffffffffffffffffffffffff84860990508385029250828103915082811015611f9d576001820391505b509250929050565b60008181038216808381611fb557fe5b049250808581611fc157fe5b049450808160000381611fd057fe5b60028581038087028203028087028203028087028203028087028203028087028203028087028203029586029003909402930460010193909302939093010292915050565b6000610f69836001600160a01b0384166120aa565b8154600090821061206c5760405162461bcd60e51b8152600401808060200182810382526022815260200180612acd6022913960400191505060405180910390fd5b82600001828154811061207b57fe5b9060005260206000200154905092915050565b60009081526001919091016020526040902054151590565b5490565b600081815260018301602052604081205480156121845783547fffffffffffffffffffffffffffffffffffffffffffffffffffffffffffffffff80830191908101906000908790839081106120fb57fe5b906000526020600020015490508087600001848154811061211857fe5b60009182526020808320909101929092558281526001898101909252604090209084019055865487908061214857fe5b60019003818190600052602060002001600090559055866001016000878152602001908152602001600020600090556001945050505050610f6c565b6000915050610f6c565b80516dffffffffffffffffffffffffffff811681146104d257600080fd5b6000602082840312156121bd578081fd5b8151611b9681612ab7565b600080602083850312156121da578081fd5b823567ffffffffffffffff808211156121f1578283fd5b818501915085601f830112612204578283fd5b813581811115612212578384fd5b8660208083028501011115612225578384fd5b60209290920196919550909350505050565b60006020808385031215612249578182fd5b825167ffffffffffffffff80821115612260578384fd5b818501915085601f830112612273578384fd5b81518181111561227f57fe5b838102915061228f848301612a41565b8181528481019084860184860187018a10156122a9578788fd5b8795505b838610156122cb5780518352600195909501949186019186016122ad565b5098975050505050505050565b6000602082840312156122e9578081fd5b81518015158114611b96578182fd5b600060208284031215612309578081fd5b5035919050565b60008060408385031215612322578182fd5b82359150602083013561233481612ab7565b809150509250929050565b60008060408385031215612351578182fd5b50508035926020909101359150565b600080600080600080600060e0888a03121561237a578283fd5b873561238581612ab7565b9650602088013561239581612ab7565b955060408801356123a581612ab7565b969995985095966060810135965060808101359560a0820135955060c0909101359350915050565b600080600080600060a086880312156123e4578081fd5b85356123ef81612ab7565b945060208601356123ff81612ab7565b9350604086013561240f81612ab7565b9250606086013561241f81612ab7565b949793965091946080013592915050565b600060208284031215612441578081fd5b813567ffffffffffffffff811115612457578182fd5b8201601f81018413612467578182fd5b803561247a61247582612a65565b612a41565b81815285602083850101111561248e578384fd5b81602084016020830137908101602001929092525092915050565b6000602082840312156124ba578081fd5b815167ffffffffffffffff8111156124d0578182fd5b8201601f810184136124e0578182fd5b80516124ee61247582612a65565b818152856020838501011115612502578384fd5b612513826020830160208601612a87565b95945050505050565b600080600060608486031215612530578081fd5b6125398461218e565b92506125476020850161218e565b9150604084015163ffffffff8116811461255f578182fd5b809150509250925092565b60006020828403121561257b578081fd5b5051919050565b60008060008060808587031215612597578182fd5b5050823594602084013594506040840135936060013592509050565b60008060008060008060c087890312156125cb578384fd5b505084359660208601359650604086013595606081013595506080810135945060a0013592509050565b6000815180845260208085019450808401835b8381101561262d5781516001600160a01b031687529582019590820190600101612608565b509495945050505050565b6000815180845260208085019450808401835b8381101561262d5781518752958201959082019060010161264b565b6000815180845261267f816020860160208601612a87565b601f01601f19169290920160200192915050565b6000828483379101908152919050565b6001600160a01b0391909116815260200190565b6001600160a01b039384168152919092166020820152604081019190915260600190565b6001600160a01b0392831681529116602082015260400190565b6001600160a01b03929092168252602082015260400190565b6000602080830181845280855180835260408601915060408482028701019250838701855b8281101561277f577fffffffffffffffffffffffffffffffffffffffffffffffffffffffffffffffc088860301845261276d858351612667565b94509285019290850190600101612733565b5092979650505050505050565b60006040825261279f6040830185612638565b828103602084015261251381856125f5565b600060a082526127c460a0830188612638565b82810360208401526127d681886125f5565b60408401969096525050606081019290925260809091015292915050565b901515815260200190565b9115158252602082015260400190565b90815260200190565b600060208252610f696020830184612667565b6020808252601e908201527f4578616d706c6553776170546f50726963653a205a45524f5f5350454e440000604082015260600190565b60208082526011908201527f417262697472616765206661696c656421000000000000000000000000000000604082015260600190565b60208082526011908201527f5472616e736665722066726f6d20626164000000000000000000000000000000604082015260600190565b6020808252601e908201527f4578616d706c6553776170546f50726963653a205a45524f5f50524943450000604082015260600190565b60208082526022908201527f4578616d706c6553776170546f50726963653a205a45524f5f414d4f554e545f60408201527f494e000000000000000000000000000000000000000000000000000000000000606082015260800190565b60008382526040602083015261297d60408301846125f5565b949350505050565b600086825285602083015260a060408301526129a460a08301866125f5565b6001600160a01b0394909416606083015250608001529392505050565b9283526020830191909152604082015260600190565b60008083357fffffffffffffffffffffffffffffffffffffffffffffffffffffffffffffffe1843603018112612a0b578283fd5b83018035915067ffffffffffffffff821115612a25578283fd5b602001915036819003821315612a3a57600080fd5b9250929050565b60405181810167ffffffffffffffff81118282101715612a5d57fe5b604052919050565b600067ffffffffffffffff821115612a7957fe5b50601f01601f191660200190565b60005b83811015612aa2578181015183820152602001612a8a565b83811115612ab1576000848401525b50505050565b6001600160a01b0381168114610d2a57600080fdfe456e756d657261626c655365743a20696e646578206f7574206f6620626f756e6473416363657373436f6e74726f6c3a2073656e646572206d75737420626520616e2061646d696e20746f206772616e74416363657373436f6e74726f6c3a2073656e646572206d75737420626520616e2061646d696e20746f207265766f6b65416363657373436f6e74726f6c3a2063616e206f6e6c792072656e6f756e636520726f6c657320666f722073656c66a26469706673582212200cfcd331907b5fd5a271eaf9d3566f539ff42c2b61829e32d23892831df8ecc164736f6c63430007060033",
  "linkReferences": {},
  "deployedLinkReferences": {}
}