{
  "_format": "hh-sol-artifact-1",
  "contractName": "UniV2LikeArb",
  "sourceName": "contracts/UniV2LikeArb.sol",
  "abi": [
    {
      "inputs": [
        {
          "internalType": "address",
          "name": "_admin",
          "type": "address"
        }
      ],
      "stateMutability": "nonpayable",
      "type": "constructor"
    },
    {
      "anonymous": false,
      "inputs": [
        {
          "indexed": true,
          "internalType": "bytes32",
          "name": "role",
          "type": "bytes32"
        },
        {
          "indexed": true,
          "internalType": "bytes32",
          "name": "previousAdminRole",
          "type": "bytes32"
        },
        {
          "indexed": true,
          "internalType": "bytes32",
          "name": "newAdminRole",
          "type": "bytes32"
        }
      ],
      "name": "RoleAdminChanged",
      "type": "event"
    },
    {
      "anonymous": false,
      "inputs": [
        {
          "indexed": true,
          "internalType": "bytes32",
          "name": "role",
          "type": "bytes32"
        },
        {
          "indexed": true,
          "internalType": "address",
          "name": "account",
          "type": "address"
        },
        {
          "indexed": true,
          "internalType": "address",
          "name": "sender",
          "type": "address"
        }
      ],
      "name": "RoleGranted",
      "type": "event"
    },
    {
      "anonymous": false,
      "inputs": [
        {
          "indexed": true,
          "internalType": "bytes32",
          "name": "role",
          "type": "bytes32"
        },
        {
          "indexed": true,
          "internalType": "address",
          "name": "account",
          "type": "address"
        },
        {
          "indexed": true,
          "internalType": "address",
          "name": "sender",
          "type": "address"
        }
      ],
      "name": "RoleRevoked",
      "type": "event"
    },
    {
      "inputs": [],
      "name": "DEFAULT_ADMIN_ROLE",
      "outputs": [
        {
          "internalType": "bytes32",
          "name": "",
          "type": "bytes32"
        }
      ],
      "stateMutability": "view",
      "type": "function"
    },
    {
      "inputs": [],
      "name": "OPERATOR_ROLE",
      "outputs": [
        {
          "internalType": "bytes32",
          "name": "",
          "type": "bytes32"
        }
      ],
      "stateMutability": "view",
      "type": "function"
    },
    {
      "inputs": [
        {
          "internalType": "uint256",
          "name": "truePriceTokenA",
          "type": "uint256"
        },
        {
          "internalType": "uint256",
          "name": "truePriceTokenB",
          "type": "uint256"
        },
        {
          "internalType": "uint256",
          "name": "reserveA",
          "type": "uint256"
        },
        {
          "internalType": "uint256",
          "name": "reserveB",
          "type": "uint256"
        },
        {
          "internalType": "uint256",
          "name": "precision",
          "type": "uint256"
        },
        {
          "internalType": "uint256",
          "name": "backwardPercent",
          "type": "uint256"
        }
      ],
      "name": "computeProfitMaximizingTrade",
      "outputs": [
        {
          "internalType": "bool",
          "name": "aToB",
          "type": "bool"
        },
        {
          "internalType": "uint256",
          "name": "amountIn",
          "type": "uint256"
        }
      ],
      "stateMutability": "pure",
      "type": "function"
    },
    {
      "inputs": [
        {
          "internalType": "uint256",
          "name": "truePriceTokenA",
          "type": "uint256"
        },
        {
          "internalType": "uint256",
          "name": "truePriceTokenB",
          "type": "uint256"
        },
        {
          "internalType": "uint256",
          "name": "reserveA",
          "type": "uint256"
        },
        {
          "internalType": "uint256",
          "name": "reserveB",
          "type": "uint256"
        }
      ],
      "name": "computeProfitMaximizingTrade",
      "outputs": [
        {
          "internalType": "bool",
          "name": "aToB",
          "type": "bool"
        },
        {
          "internalType": "uint256",
          "name": "amountIn",
          "type": "uint256"
        }
      ],
      "stateMutability": "pure",
      "type": "function"
    },
    {
      "inputs": [],
      "name": "destroy",
      "outputs": [],
      "stateMutability": "nonpayable",
      "type": "function"
    },
    {
      "inputs": [
        {
          "internalType": "contract IUniswapV2Router01",
          "name": "_routerA",
          "type": "address"
        },
        {
          "internalType": "contract IUniswapV2Router01",
          "name": "_routerB",
          "type": "address"
        },
        {
          "internalType": "address",
          "name": "_profitToken",
          "type": "address"
        },
        {
          "internalType": "address",
          "name": "_middleToken",
          "type": "address"
        },
        {
          "internalType": "uint256",
          "name": "_amountIn",
          "type": "uint256"
        }
      ],
      "name": "getExpectedAmount",
      "outputs": [
        {
          "internalType": "uint256",
          "name": "amountOut",
          "type": "uint256"
        }
      ],
      "stateMutability": "view",
      "type": "function"
    },
    {
      "inputs": [
        {
          "internalType": "contract IUniswapV2Router01",
          "name": "router",
          "type": "address"
        },
        {
          "internalType": "address",
          "name": "tokenA",
          "type": "address"
        },
        {
          "internalType": "address",
          "name": "tokenB",
          "type": "address"
        },
        {
          "internalType": "uint256",
          "name": "truePriceTokenA",
          "type": "uint256"
        },
        {
          "internalType": "uint256",
          "name": "truePriceTokenB",
          "type": "uint256"
        },
        {
          "internalType": "uint256",
          "name": "maxSpendTokenA",
          "type": "uint256"
        },
        {
          "internalType": "uint256",
          "name": "maxSpendTokenB",
          "type": "uint256"
        }
      ],
      "name": "getMaximizedProfit",
      "outputs": [
        {
          "internalType": "uint256[]",
          "name": "amounts",
          "type": "uint256[]"
        },
        {
          "internalType": "address[]",
          "name": "path",
          "type": "address[]"
        },
        {
          "internalType": "uint256",
          "name": "amountIn",
          "type": "uint256"
        },
        {
          "internalType": "uint256",
          "name": "amountInHypothetical",
          "type": "uint256"
        },
        {
          "internalType": "uint256",
          "name": "profit",
          "type": "uint256"
        }
      ],
      "stateMutability": "view",
      "type": "function"
    },
    {
      "inputs": [
        {
          "internalType": "bytes32",
          "name": "role",
          "type": "bytes32"
        }
      ],
      "name": "getRoleAdmin",
      "outputs": [
        {
          "internalType": "bytes32",
          "name": "",
          "type": "bytes32"
        }
      ],
      "stateMutability": "view",
      "type": "function"
    },
    {
      "inputs": [
        {
          "internalType": "string",
          "name": "_role",
          "type": "string"
        }
      ],
      "name": "getRoleHash",
      "outputs": [
        {
          "internalType": "bytes32",
          "name": "hash",
          "type": "bytes32"
        }
      ],
      "stateMutability": "pure",
      "type": "function"
    },
    {
      "inputs": [
        {
          "internalType": "bytes32",
          "name": "role",
          "type": "bytes32"
        },
        {
          "internalType": "uint256",
          "name": "index",
          "type": "uint256"
        }
      ],
      "name": "getRoleMember",
      "outputs": [
        {
          "internalType": "address",
          "name": "",
          "type": "address"
        }
      ],
      "stateMutability": "view",
      "type": "function"
    },
    {
      "inputs": [
        {
          "internalType": "bytes32",
          "name": "role",
          "type": "bytes32"
        }
      ],
      "name": "getRoleMemberCount",
      "outputs": [
        {
          "internalType": "uint256",
          "name": "",
          "type": "uint256"
        }
      ],
      "stateMutability": "view",
      "type": "function"
    },
    {
      "inputs": [
        {
          "internalType": "bytes32",
          "name": "role",
          "type": "bytes32"
        },
        {
          "internalType": "address",
          "name": "account",
          "type": "address"
        }
      ],
      "name": "grantRole",
      "outputs": [],
      "stateMutability": "nonpayable",
      "type": "function"
    },
    {
      "inputs": [
        {
          "internalType": "bytes32",
          "name": "role",
          "type": "bytes32"
        },
        {
          "internalType": "address",
          "name": "account",
          "type": "address"
        }
      ],
      "name": "hasRole",
      "outputs": [
        {
          "internalType": "bool",
          "name": "",
          "type": "bool"
        }
      ],
      "stateMutability": "view",
      "type": "function"
    },
    {
      "inputs": [
        {
          "internalType": "bytes[]",
          "name": "data",
          "type": "bytes[]"
        }
      ],
      "name": "multicall",
      "outputs": [
        {
          "internalType": "bytes[]",
          "name": "results",
          "type": "bytes[]"
        }
      ],
      "stateMutability": "payable",
      "type": "function"
    },
    {
      "inputs": [
        {
          "internalType": "bytes32",
          "name": "role",
          "type": "bytes32"
        },
        {
          "internalType": "address",
          "name": "account",
          "type": "address"
        }
      ],
      "name": "renounceRole",
      "outputs": [],
      "stateMutability": "nonpayable",
      "type": "function"
    },
    {
      "inputs": [
        {
          "internalType": "bytes32",
          "name": "role",
          "type": "bytes32"
        },
        {
          "internalType": "address",
          "name": "account",
          "type": "address"
        }
      ],
      "name": "revokeRole",
      "outputs": [],
      "stateMutability": "nonpayable",
      "type": "function"
    },
    {
      "inputs": [
        {
          "internalType": "contract IUniswapV2Router01",
          "name": "_routerA",
          "type": "address"
        },
        {
          "internalType": "contract IUniswapV2Router01",
          "name": "_routerB",
          "type": "address"
        },
        {
          "internalType": "address",
          "name": "_profitToken",
          "type": "address"
        },
        {
          "internalType": "address",
          "name": "_middleToken",
          "type": "address"
        },
        {
          "internalType": "uint256",
          "name": "_amountIn",
          "type": "uint256"
        }
      ],
      "name": "safeSwap",
      "outputs": [
        {
          "internalType": "uint256",
          "name": "amountOut",
          "type": "uint256"
        }
      ],
      "stateMutability": "nonpayable",
      "type": "function"
    },
    {
      "inputs": [
        {
          "internalType": "contract IUniswapV2Router01",
          "name": "_routerA",
          "type": "address"
        },
        {
          "internalType": "contract IUniswapV2Router01",
          "name": "_routerB",
          "type": "address"
        },
        {
          "internalType": "address",
          "name": "_profitToken",
          "type": "address"
        },
        {
          "internalType": "address",
          "name": "_middleToken",
          "type": "address"
        },
        {
          "internalType": "uint256",
          "name": "_amountIn",
          "type": "uint256"
        }
      ],
      "name": "swap",
      "outputs": [
        {
          "internalType": "uint256",
          "name": "amountOut",
          "type": "uint256"
        }
      ],
      "stateMutability": "nonpayable",
      "type": "function"
    },
    {
      "inputs": [
        {
          "internalType": "contract IUniswapV2Router01",
          "name": "router",
          "type": "address"
        },
        {
          "internalType": "address",
          "name": "tokenA",
          "type": "address"
        },
        {
          "internalType": "address",
          "name": "tokenB",
          "type": "address"
        },
        {
          "internalType": "uint256",
          "name": "truePriceTokenA",
          "type": "uint256"
        },
        {
          "internalType": "uint256",
          "name": "truePriceTokenB",
          "type": "uint256"
        },
        {
          "internalType": "uint256",
          "name": "maxSpendTokenA",
          "type": "uint256"
        },
        {
          "internalType": "uint256",
          "name": "maxSpendTokenB",
          "type": "uint256"
        }
      ],
      "name": "swapToPrice",
      "outputs": [
        {
          "internalType": "uint256[]",
          "name": "amounts",
          "type": "uint256[]"
        },
        {
          "internalType": "address[]",
          "name": "path",
          "type": "address[]"
        }
      ],
      "stateMutability": "nonpayable",
      "type": "function"
    },
    {
      "inputs": [
        {
          "internalType": "contract IERC20",
          "name": "_token",
          "type": "address"
        },
        {
          "internalType": "address",
          "name": "_account",
          "type": "address"
        },
        {
          "internalType": "uint256",
          "name": "_amount",
          "type": "uint256"
        }
      ],
      "name": "withdrawToken",
      "outputs": [],
      "stateMutability": "nonpayable",
      "type": "function"
    }
  ],
  "bytecode": "0x60806040526200001060a0620001ff565b604051602081830303815290604052805190602001206001553480156200003657600080fd5b506040516200349b3803806200349b8339810160408190526200005991620001cf565b806001600160a01b038116620000a6576040805162461bcd60e51b815260206004820152600d60248201526c10591b5a5b881b9bdd081cd95d609a1b604482015290519081900360640190fd5b620000b3600082620000bb565b505062000218565b620000c78282620000cb565b5050565b600082815260208181526040909120620000f091839062001d4a62000144821b17901c565b15620000c7576200010062000164565b6001600160a01b0316816001600160a01b0316837f2f8788117e7eff1d82e926ec794901d17c78024a50270940304540a733656f0d60405160405180910390a45050565b60006200015b836001600160a01b03841662000168565b90505b92915050565b3390565b6000620001768383620001b7565b620001ae575081546001818101845560008481526020808220909301849055845484825282860190935260409020919091556200015e565b5060006200015e565b60009081526001919091016020526040902054151590565b600060208284031215620001e1578081fd5b81516001600160a01b0381168114620001f8578182fd5b9392505050565b6c4f50455241544f525f524f4c4560981b8152600d0190565b61327380620002286000396000f3fe60806040526004361061015e5760003560e01c806391d14854116100c0578063ca15c87311610074578063f275f1af11610059578063f275f1af146103cc578063f5b541a6146103ec578063fa653154146104015761015e565b8063ca15c8731461038c578063d547741f146103ac5761015e565b8063ac55f706116100a5578063ac55f7061461030d578063ac9650d81461033b578063ad3d3ede1461035b5761015e565b806391d14854146102cb578063a217fddf146102f85761015e565b80636194ae391161011757806383197ef0116100fc57806383197ef0146102695780638da4e9c01461027e5780639010d07c1461029e5761015e565b80636194ae39146102295780637063e435146102495761015e565b8063248a9ca311610148578063248a9ca3146101bc5780632f2ff15d146101e957806336568abe146102095761015e565b806252e8431461016357806301e336671461019a575b600080fd5b34801561016f57600080fd5b5061018361017e366004612bc2565b610421565b604051610191929190612e0e565b60405180910390f35b3480156101a657600080fd5b506101ba6101b536600461292f565b610535565b005b3480156101c857600080fd5b506101dc6101d73660046128c7565b6105f2565b6040516101919190612e1e565b3480156101f557600080fd5b506101ba6102043660046128df565b61060a565b34801561021557600080fd5b506101ba6102243660046128df565b610671565b34801561023557600080fd5b506101dc6102443660046129dc565b6106d2565b34801561025557600080fd5b506101dc6102643660046129dc565b610df8565b34801561027557600080fd5b506101ba610f77565b34801561028a57600080fd5b506101dc6102993660046129dc565b610fdf565b3480156102aa57600080fd5b506102be6102b936600461290e565b6111ce565b6040516101919190612cb2565b3480156102d757600080fd5b506102eb6102e63660046128df565b6111ef565b6040516101919190612e03565b34801561030457600080fd5b506101dc611207565b34801561031957600080fd5b5061032d61032836600461296f565b61120c565b604051610191929190612d9b565b61034e610349366004612797565b6116ca565b6040516101919190612d1d565b34801561036757600080fd5b5061037b61037636600461296f565b61180a565b604051610191959493929190612dc0565b34801561039857600080fd5b506101dc6103a73660046128c7565b611ba1565b3480156103b857600080fd5b506101ba6103c73660046128df565b611bb8565b3480156103d857600080fd5b506101dc6103e7366004612a3f565b611c11565b3480156103f857600080fd5b506101dc611c88565b34801561040d57600080fd5b5061018361041c366004612b91565b611c8e565b60008083831115610479576040805162461bcd60e51b815260206004820152601760248201527f496e636f727265637420707265636973696f6e20736574000000000000000000604482015290519081900360640190fd5b87610485878988611d5f565b10915060006104948787611e1a565b905060006104d66104d16104a88489611e1a565b866104b3578b6104b5565b8c5b6104cc89896104c4578f6104c6565b8e5b90611e1a565b611d5f565b611e86565b9050600085856104ef576104ea8989611e1a565b6104f9565b6104f98a89611e1a565b8161050057fe5b0490508082101561051a576000809450945050505061052a565b6105248282611ed7565b93505050505b965096945050505050565b600061054181336111ef565b610592576040805162461bcd60e51b815260206004820152601260248201527f5065726d697373696f6e2064656e696564210000000000000000000000000000604482015290519081900360640190fd5b6001600160a01b0383166105c15760405162461bcd60e51b81526004016105b890612faa565b60405180910390fd5b600082116105e15760405162461bcd60e51b81526004016105b890612f73565b6105ec848484611f2f565b50505050565b6000818152602081905260409020600201545b919050565b600082815260208190526040902060020154610628906102e6611fb4565b6106635760405162461bcd60e51b815260040180806020018281038252602f815260200180613160602f913960400191505060405180910390fd5b61066d8282611fb8565b5050565b610679611fb4565b6001600160a01b0316816001600160a01b0316146106c85760405162461bcd60e51b815260040180806020018281038252602f81526020018061320f602f913960400191505060405180910390fd5b61066d8282612021565b600080600080886001600160a01b031663c45a01556040518163ffffffff1660e01b815260040160206040518083038186803b15801561071157600080fd5b505afa158015610725573d6000803e3d6000fd5b505050506040513d601f19601f82011682018060405250810190610749919061277b565b6001600160a01b031663e6a4390588886040518363ffffffff1660e01b8152600401610776929190612cea565b60206040518083038186803b15801561078e57600080fd5b505afa1580156107a2573d6000803e3d6000fd5b505050506040513d601f19601f820116820180604052508101906107c6919061277b565b604080516002808252606082018352929350600092909160208301908036833701905050905087816000815181106107fa57fe5b60200260200101906001600160a01b031690816001600160a01b031681525050868160018151811061082857fe5b60200260200101906001600160a01b031690816001600160a01b0316815250506000826001600160a01b0316630dfe16816040518163ffffffff1660e01b815260040160206040518083038186803b15801561088357600080fd5b505afa158015610897573d6000803e3d6000fd5b505050506040513d601f19601f820116820180604052508101906108bb919061277b565b90506000836001600160a01b031663d21220a76040518163ffffffff1660e01b815260040160206040518083038186803b1580156108f857600080fd5b505afa15801561090c573d6000803e3d6000fd5b505050506040513d601f19601f82011682018060405250810190610930919061277b565b90508b6001600160a01b031663c45a01556040518163ffffffff1660e01b815260040160206040518083038186803b15801561096b57600080fd5b505afa15801561097f573d6000803e3d6000fd5b505050506040513d601f19601f820116820180604052508101906109a3919061277b565b6001600160a01b031663e6a439058b8b6040518363ffffffff1660e01b81526004016109d0929190612cea565b60206040518083038186803b1580156109e857600080fd5b505afa1580156109fc573d6000803e3d6000fd5b505050506040513d601f19601f82011682018060405250810190610a20919061277b565b6001600160a01b0316630902f1ac6040518163ffffffff1660e01b815260040160606040518083038186803b158015610a5857600080fd5b505afa158015610a6c573d6000803e3d6000fd5b505050506040513d601f19601f82011682018060405250810190610a909190612b2b565b506dffffffffffffffffffffffffffff91821697501694506001600160a01b03808d169063054d50d4908a90858116908e1614610acd5787610acf565b885b8c6001600160a01b0316856001600160a01b031614610aee5789610af0565b885b6040518463ffffffff1660e01b8152600401610b0e93929190613036565b60206040518083038186803b158015610b2657600080fd5b505afa158015610b3a573d6000803e3d6000fd5b505050506040513d601f19601f82011682018060405250810190610b5e9190612b79565b96508883600081518110610b6e57fe5b60200260200101906001600160a01b031690816001600160a01b0316815250508983600181518110610b9c57fe5b60200260200101906001600160a01b031690816001600160a01b0316815250508a6001600160a01b031663c45a01556040518163ffffffff1660e01b815260040160206040518083038186803b158015610bf557600080fd5b505afa158015610c09573d6000803e3d6000fd5b505050506040513d601f19601f82011682018060405250810190610c2d919061277b565b6001600160a01b031663e6a439058b8b6040518363ffffffff1660e01b8152600401610c5a929190612cea565b60206040518083038186803b158015610c7257600080fd5b505afa158015610c86573d6000803e3d6000fd5b505050506040513d601f19601f82011682018060405250810190610caa919061277b565b6001600160a01b0316630902f1ac6040518163ffffffff1660e01b815260040160606040518083038186803b158015610ce257600080fd5b505afa158015610cf6573d6000803e3d6000fd5b505050506040513d601f19601f82011682018060405250810190610d1a9190612b2b565b506dffffffffffffffffffffffffffff91821697501694506001600160a01b03808c169063054d50d4908990858116908d1614610d575787610d59565b885b8d6001600160a01b0316856001600160a01b031614610d785789610d7a565b885b6040518463ffffffff1660e01b8152600401610d9893929190613036565b60206040518083038186803b158015610db057600080fd5b505afa158015610dc4573d6000803e3d6000fd5b505050506040513d601f19601f82011682018060405250810190610de89190612b79565b9c9b505050505050505050505050565b6000600154610e0781336111ef565b610e58576040805162461bcd60e51b815260206004820152601260248201527f5065726d697373696f6e2064656e696564210000000000000000000000000000604482015290519081900360640190fd5b6040805160028082526060820183526000926020830190803683370190505090508581600081518110610e8757fe5b60200260200101906001600160a01b031690816001600160a01b0316815250508481600181518110610eb557fe5b60200260200101906001600160a01b031690816001600160a01b031681525050610ee18885833061208a565b92508481600081518110610ef157fe5b60200260200101906001600160a01b031690816001600160a01b0316815250508581600181518110610f1f57fe5b60200260200101906001600160a01b031690816001600160a01b031681525050610f4b8784833061208a565b9250838311610f6c5760405162461bcd60e51b81526004016105b890612e71565b505095945050505050565b6000610f8381336111ef565b610fd4576040805162461bcd60e51b815260206004820152601260248201527f5065726d697373696f6e2064656e696564210000000000000000000000000000604482015290519081900360640190fd5b610fdc6121e3565b50565b6000600154610fee81336111ef565b61103f576040805162461bcd60e51b815260206004820152601260248201527f5065726d697373696f6e2064656e696564210000000000000000000000000000604482015290519081900360640190fd5b6040517f23b872dd0000000000000000000000000000000000000000000000000000000081526001600160a01b038616906323b872dd9061108890339030908890600401612cc6565b602060405180830381600087803b1580156110a257600080fd5b505af11580156110b6573d6000803e3d6000fd5b505050506040513d601f19601f820116820180604052508101906110da91906128a7565b50604080516002808252606082018352600092602083019080368337019050509050858160008151811061110a57fe5b60200260200101906001600160a01b031690816001600160a01b031681525050848160018151811061113857fe5b60200260200101906001600160a01b031690816001600160a01b0316815250506111648885833061208a565b9250848160008151811061117457fe5b60200260200101906001600160a01b031690816001600160a01b03168152505085816001815181106111a257fe5b60200260200101906001600160a01b031690816001600160a01b031681525050610f4b8784833361208a565b60008281526020819052604081206111e690836121e6565b90505b92915050565b60008281526020819052604081206111e690836121f2565b600081565b606080851580159061121d57508415155b6112395760405162461bcd60e51b81526004016105b890612edf565b8315158061124657508215155b6112625760405162461bcd60e51b81526004016105b890612e3a565b6000806000808c6001600160a01b031663c45a01556040518163ffffffff1660e01b815260040160206040518083038186803b1580156112a157600080fd5b505afa1580156112b5573d6000803e3d6000fd5b505050506040513d601f19601f820116820180604052508101906112d9919061277b565b6001600160a01b031663e6a439058d8d6040518363ffffffff1660e01b8152600401611306929190612cea565b60206040518083038186803b15801561131e57600080fd5b505afa158015611332573d6000803e3d6000fd5b505050506040513d601f19601f82011682018060405250810190611356919061277b565b6001600160a01b0316630902f1ac6040518163ffffffff1660e01b815260040160606040518083038186803b15801561138e57600080fd5b505afa1580156113a2573d6000803e3d6000fd5b505050506040513d601f19601f820116820180604052508101906113c69190612b2b565b506dffffffffffffffffffffffffffff1691506dffffffffffffffffffffffffffff1691506113f78a8a8484611c8e565b909450925050508061141b5760405162461bcd60e51b81526004016105b890612f16565b600082611428578561142a565b865b905080821115611438578091505b600083611445578a611447565b8b5b6040805160028082526060820183529293509190602083019080368337019050509450808560008151811061147857fe5b60200260200101906001600160a01b031690816001600160a01b031681525050836114a3578b6114a5565b8a5b856001815181106114b257fe5b6001600160a01b0392831660209182029290920101526040517f23b872dd000000000000000000000000000000000000000000000000000000008152908216906323b872dd9061150a90339030908890600401612cc6565b602060405180830381600087803b15801561152457600080fd5b505af1158015611538573d6000803e3d6000fd5b505050506040513d601f19601f8201168201806040525081019061155c91906128a7565b6115785760405162461bcd60e51b81526004016105b890612ea8565b806001600160a01b031663095ea7b38e856040518363ffffffff1660e01b81526004016115a6929190612d04565b602060405180830381600087803b1580156115c057600080fd5b505af11580156115d4573d6000803e3d6000fd5b505050506040513d601f19601f820116820180604052508101906115f891906128a7565b6116145760405162461bcd60e51b81526004016105b890612ea8565b6040517f38ed17390000000000000000000000000000000000000000000000000000000081526001600160a01b038e16906338ed1739906116629086906000908a9033904290600401612ffa565b600060405180830381600087803b15801561167c57600080fd5b505af1158015611690573d6000803e3d6000fd5b505050506040513d6000823e601f3d908101601f191682016040526116b89190810190612806565b95505050505097509795505050505050565b60608167ffffffffffffffff811180156116e357600080fd5b5060405190808252806020026020018201604052801561171757816020015b60608152602001906001900390816117025790505b50905060005b82811015611803576000803086868581811061173557fe5b9050602002810190611747919061304c565b604051611755929190612ca2565b600060405180830381855af49150503d8060008114611790576040519150601f19603f3d011682016040523d82523d6000602084013e611795565b606091505b5091509150816117e1576044815110156117ae57600080fd5b600481019050808060200190518101906117c89190612ab8565b60405162461bcd60e51b81526004016105b89190612e27565b808484815181106117ee57fe5b6020908102919091010152505060010161171d565b5092915050565b60608060008080881580159061181f57508715155b61183b5760405162461bcd60e51b81526004016105b890612edf565b8615158061184857508515155b6118645760405162461bcd60e51b81526004016105b890612e3a565b60008060008e6001600160a01b031663c45a01556040518163ffffffff1660e01b815260040160206040518083038186803b1580156118a257600080fd5b505afa1580156118b6573d6000803e3d6000fd5b505050506040513d601f19601f820116820180604052508101906118da919061277b565b6001600160a01b031663e6a439058f8f6040518363ffffffff1660e01b8152600401611907929190612cea565b60206040518083038186803b15801561191f57600080fd5b505afa158015611933573d6000803e3d6000fd5b505050506040513d601f19601f82011682018060405250810190611957919061277b565b6001600160a01b0316630902f1ac6040518163ffffffff1660e01b815260040160606040518083038186803b15801561198f57600080fd5b505afa1580156119a3573d6000803e3d6000fd5b505050506040513d601f19601f820116820180604052508101906119c79190612b2b565b506dffffffffffffffffffffffffffff1691506dffffffffffffffffffffffffffff1691506119f88c8c8484611c8e565b96509250505083611a1b5760405162461bcd60e51b81526004016105b890612f16565b839250600081611a2b5787611a2d565b885b905080851115611a3b578094505b600082611a48578c611a4a565b8d5b60408051600280825260608201835292935091906020830190803683370190505096508087600081518110611a7b57fe5b60200260200101906001600160a01b031690816001600160a01b03168152505082611aa6578d611aa8565b8c5b87600181518110611ab557fe5b60200260200101906001600160a01b031690816001600160a01b0316815250508e6001600160a01b031663d06ca61f87896040518363ffffffff1660e01b8152600401611b03929190612fe1565b60006040518083038186803b158015611b1b57600080fd5b505afa158015611b2f573d6000803e3d6000fd5b505050506040513d6000823e601f3d908101601f19168201604052611b579190810190612806565b97508588600181518110611b6757fe5b60200260200101511115611b8f578588600181518110611b8357fe5b60200260200101510393505b50505097509750975097509792505050565b60008181526020819052604081206111e990612207565b600082815260208190526040902060020154611bd6906102e6611fb4565b6106c85760405162461bcd60e51b81526004018080602001828103825260308152602001806131b56030913960400191505060405180910390fd5b6000816040516020018082805190602001908083835b60208310611c465780518252601f199092019160209182019101611c27565b6001836020036101000a038019825116818451168082178552505050505050905001915050604051602081830303815290604052805190602001209050919050565b60015481565b60008085611c9d858786611d5f565b1091506000611cac8585611e1a565b90506000611ce76104d1611cc2846103e8611e1a565b86611ccd5789611ccf565b8a5b6104cc6103e589611ce0578d6104c6565b8c90611e1a565b905060006103e585611d0457611cff876103e8611e1a565b611d10565b611d10886103e8611e1a565b81611d1757fe5b04905080821015611d315760008094509450505050611d41565b611d3b8282611ed7565b93505050505b94509492505050565b60006111e6836001600160a01b038416612212565b6000806000611d6e868661225c565b9150915060008480611d7c57fe5b868809905082811115611d90576001820391505b918290039181611dae57848381611da357fe5b049350505050611e13565b848210611e02576040805162461bcd60e51b815260206004820152601a60248201527f46756c6c4d6174683a2046554c4c4449565f4f564552464c4f57000000000000604482015290519081900360640190fd5b611e0d8383876122a7565b93505050505b9392505050565b6000811580611e3557505080820282828281611e3257fe5b04145b6111e9576040805162461bcd60e51b815260206004820152601460248201527f64732d6d6174682d6d756c2d6f766572666c6f77000000000000000000000000604482015290519081900360640190fd5b60006003821115611ec9575080600160028204015b81811015611ec357809150600281828581611eb257fe5b040181611ebb57fe5b049050611e9b565b50610605565b811561060557506001919050565b808203828111156111e9576040805162461bcd60e51b815260206004820152601560248201527f64732d6d6174682d7375622d756e646572666c6f770000000000000000000000604482015290519081900360640190fd5b604080516001600160a01b038416602482015260448082018490528251808303909101815260649091019091526020810180517bffffffffffffffffffffffffffffffffffffffffffffffffffffffff167fa9059cbb00000000000000000000000000000000000000000000000000000000179052611faf908490612317565b505050565b3390565b6000828152602081905260409020611fd09082611d4a565b1561066d57611fdd611fb4565b6001600160a01b0316816001600160a01b0316837f2f8788117e7eff1d82e926ec794901d17c78024a50270940304540a733656f0d60405160405180910390a45050565b600082815260208190526040902061203990826123c8565b1561066d57612046611fb4565b6001600160a01b0316816001600160a01b0316837ff6391f5c32d9c69d2a47ea670b442974b53935d1edc7fd64eb21e047a839171b60405160405180910390a45050565b60008260008151811061209957fe5b60200260200101516001600160a01b031663095ea7b386866040518363ffffffff1660e01b81526004016120ce929190612d04565b602060405180830381600087803b1580156120e857600080fd5b505af11580156120fc573d6000803e3d6000fd5b505050506040513d601f19601f8201168201806040525081019061212091906128a7565b506040517f38ed17390000000000000000000000000000000000000000000000000000000081526001600160a01b038616906338ed17399061216f908790600090889088904290600401612ffa565b600060405180830381600087803b15801561218957600080fd5b505af115801561219d573d6000803e3d6000fd5b505050506040513d6000823e601f3d908101601f191682016040526121c59190810190612806565b6001815181106121d157fe5b60200260200101519050949350505050565b33ff5b60006111e683836123dd565b60006111e6836001600160a01b038416612441565b60006111e982612459565b600061221e8383612441565b612254575081546001818101845560008481526020808220909301849055845484825282860190935260409020919091556111e9565b5060006111e9565b600080807fffffffffffffffffffffffffffffffffffffffffffffffffffffffffffffffff8486099050838502925082810391508281101561229f576001820391505b509250929050565b600081810382168083816122b757fe5b0492508085816122c357fe5b0494508081600003816122d257fe5b60028581038087028203028087028203028087028203028087028203028087028203028087028203029586029003909402930460010193909302939093010292915050565b600061236c826040518060400160405280602081526020017f5361666545524332303a206c6f772d6c6576656c2063616c6c206661696c6564815250856001600160a01b031661245d9092919063ffffffff16565b805190915015611faf5780806020019051602081101561238b57600080fd5b5051611faf5760405162461bcd60e51b815260040180806020018281038252602a8152602001806131e5602a913960400191505060405180910390fd5b60006111e6836001600160a01b038416612474565b8154600090821061241f5760405162461bcd60e51b815260040180806020018281038252602281526020018061313e6022913960400191505060405180910390fd5b82600001828154811061242e57fe5b9060005260206000200154905092915050565b60009081526001919091016020526040902054151590565b5490565b606061246c8484600085612558565b949350505050565b6000818152600183016020526040812054801561254e5783547fffffffffffffffffffffffffffffffffffffffffffffffffffffffffffffffff80830191908101906000908790839081106124c557fe5b90600052602060002001549050808760000184815481106124e257fe5b60009182526020808320909101929092558281526001898101909252604090209084019055865487908061251257fe5b600190038181906000526020600020016000905590558660010160008781526020019081526020016000206000905560019450505050506111e9565b60009150506111e9565b6060824710156125995760405162461bcd60e51b815260040180806020018281038252602681526020018061318f6026913960400191505060405180910390fd5b6125a2856126b3565b6125f3576040805162461bcd60e51b815260206004820152601d60248201527f416464726573733a2063616c6c20746f206e6f6e2d636f6e7472616374000000604482015290519081900360640190fd5b600080866001600160a01b031685876040518082805190602001908083835b602083106126315780518252601f199092019160209182019101612612565b6001836020036101000a03801982511681845116808217855250505050505090500191505060006040518083038185875af1925050503d8060008114612693576040519150601f19603f3d011682016040523d82523d6000602084013e612698565b606091505b50915091506126a88282866126b9565b979650505050505050565b3b151590565b606083156126c8575081611e13565b8251156126d85782518084602001fd5b8160405162461bcd60e51b81526004018080602001828103825283818151815260200191508051906020019080838360005b8381101561272257818101518382015260200161270a565b50505050905090810190601f16801561274f5780820380516001836020036101000a031916815260200191505b509250505060405180910390fd5b80516dffffffffffffffffffffffffffff8116811461060557600080fd5b60006020828403121561278c578081fd5b8151611e1381613128565b600080602083850312156127a9578081fd5b823567ffffffffffffffff808211156127c0578283fd5b818501915085601f8301126127d3578283fd5b8135818111156127e1578384fd5b86602080830285010111156127f4578384fd5b60209290920196919550909350505050565b60006020808385031215612818578182fd5b825167ffffffffffffffff8082111561282f578384fd5b818501915085601f830112612842578384fd5b81518181111561284e57fe5b838102915061285e8483016130b6565b8181528481019084860184860187018a1015612878578788fd5b8795505b8386101561289a57805183526001959095019491860191860161287c565b5098975050505050505050565b6000602082840312156128b8578081fd5b81518015158114611e13578182fd5b6000602082840312156128d8578081fd5b5035919050565b600080604083850312156128f1578182fd5b82359150602083013561290381613128565b809150509250929050565b60008060408385031215612920578182fd5b50508035926020909101359150565b600080600060608486031215612943578081fd5b833561294e81613128565b9250602084013561295e81613128565b929592945050506040919091013590565b600080600080600080600060e0888a031215612989578283fd5b873561299481613128565b965060208801356129a481613128565b955060408801356129b481613128565b969995985095966060810135965060808101359560a0820135955060c0909101359350915050565b600080600080600060a086880312156129f3578283fd5b85356129fe81613128565b94506020860135612a0e81613128565b93506040860135612a1e81613128565b92506060860135612a2e81613128565b949793965091946080013592915050565b600060208284031215612a50578081fd5b813567ffffffffffffffff811115612a66578182fd5b8201601f81018413612a76578182fd5b8035612a89612a84826130da565b6130b6565b818152856020838501011115612a9d578384fd5b81602084016020830137908101602001929092525092915050565b600060208284031215612ac9578081fd5b815167ffffffffffffffff811115612adf578182fd5b8201601f81018413612aef578182fd5b8051612afd612a84826130da565b818152856020838501011115612b11578384fd5b612b228260208301602086016130fc565b95945050505050565b600080600060608486031215612b3f578081fd5b612b488461275d565b9250612b566020850161275d565b9150604084015163ffffffff81168114612b6e578182fd5b809150509250925092565b600060208284031215612b8a578081fd5b5051919050565b60008060008060808587031215612ba6578182fd5b5050823594602084013594506040840135936060013592509050565b60008060008060008060c08789031215612bda578384fd5b505084359660208601359650604086013595606081013595506080810135945060a0013592509050565b6000815180845260208085019450808401835b83811015612c3c5781516001600160a01b031687529582019590820190600101612c17565b509495945050505050565b6000815180845260208085019450808401835b83811015612c3c57815187529582019590820190600101612c5a565b60008151808452612c8e8160208601602086016130fc565b601f01601f19169290920160200192915050565b6000828483379101908152919050565b6001600160a01b0391909116815260200190565b6001600160a01b039384168152919092166020820152604081019190915260600190565b6001600160a01b0392831681529116602082015260400190565b6001600160a01b03929092168252602082015260400190565b6000602080830181845280855180835260408601915060408482028701019250838701855b82811015612d8e577fffffffffffffffffffffffffffffffffffffffffffffffffffffffffffffffc0888603018452612d7c858351612c76565b94509285019290850190600101612d42565b5092979650505050505050565b600060408252612dae6040830185612c47565b8281036020840152612b228185612c04565b600060a08252612dd360a0830188612c47565b8281036020840152612de58188612c04565b60408401969096525050606081019290925260809091015292915050565b901515815260200190565b9115158252602082015260400190565b90815260200190565b6000602082526111e66020830184612c76565b6020808252601e908201527f4578616d706c6553776170546f50726963653a205a45524f5f5350454e440000604082015260600190565b60208082526011908201527f417262697472616765206661696c656421000000000000000000000000000000604082015260600190565b60208082526011908201527f5472616e736665722066726f6d20626164000000000000000000000000000000604082015260600190565b6020808252601e908201527f4578616d706c6553776170546f50726963653a205a45524f5f50524943450000604082015260600190565b60208082526022908201527f4578616d706c6553776170546f50726963653a205a45524f5f414d4f554e545f60408201527f494e000000000000000000000000000000000000000000000000000000000000606082015260800190565b60208082526013908201527f5a65726f20616d6f756e74207265717565737400000000000000000000000000604082015260600190565b60208082526011908201527f5a65726f20616464726573732063616c6c000000000000000000000000000000604082015260600190565b60008382526040602083015261246c6040830184612c04565b600086825285602083015260a0604083015261301960a0830186612c04565b6001600160a01b0394909416606083015250608001529392505050565b9283526020830191909152604082015260600190565b60008083357fffffffffffffffffffffffffffffffffffffffffffffffffffffffffffffffe1843603018112613080578283fd5b83018035915067ffffffffffffffff82111561309a578283fd5b6020019150368190038213156130af57600080fd5b9250929050565b60405181810167ffffffffffffffff811182821017156130d257fe5b604052919050565b600067ffffffffffffffff8211156130ee57fe5b50601f01601f191660200190565b60005b838110156131175781810151838201526020016130ff565b838111156105ec5750506000910152565b6001600160a01b0381168114610fdc57600080fdfe456e756d657261626c655365743a20696e646578206f7574206f6620626f756e6473416363657373436f6e74726f6c3a2073656e646572206d75737420626520616e2061646d696e20746f206772616e74416464726573733a20696e73756666696369656e742062616c616e636520666f722063616c6c416363657373436f6e74726f6c3a2073656e646572206d75737420626520616e2061646d696e20746f207265766f6b655361666545524332303a204552433230206f7065726174696f6e20646964206e6f742073756363656564416363657373436f6e74726f6c3a2063616e206f6e6c792072656e6f756e636520726f6c657320666f722073656c66a264697066735822122010a91804275d28f37eb06c95b992c6e667b9edab9d01736d6d3ef5670a32e45664736f6c63430007060033",
  "linkReferences": {},
  "deployedLinkReferences": {}
}